S02100006275696C642F64656275672F4546523332784732325F4F45504C2E7333376A
S2140060000008002015810000536300005363000061
S214006010AB7100005363000053630000536300003D
S2140060205363000053630000536300005363000093
S21400603053630000645B0200536300005363000078
S2140060405363000053630000536300005780000052
S2140060505363000053630000536300005363000063
S2140060605363000053630000536300005363000053
S21400607095E0000053630000536300005363000084
S2140060805363000053630000536300005363000033
S21400609053630000F1640000536300005363000084
S2140060A053630000F5810000CD81000053630000BB
S2140060B053630000492C0200536300008936020037
S2140060C0B3540200AF540200792E0200BF540200FF
S2140060D0B754020061360200BB540200C936020003
S2140060E0ED110200B11302003937020053630000BD
S2140060F053630000536300005363000053630000C3
S21400610053630000536300005363000053630000B2
S21400611053630000536300005363000053630000A2
S2140061205363000053630000536300005363000092
S214006130536300005363000021DE000011DE000000
S214006140013800D0FCE770470F207047026893695B
S21400615013F0200FFBD07047014B01221A617047E5
S21400616000F00350014B10221A61704700E0035004
S214006170014B10221A61704700D00350BFF34F8FB7
S2140061800549CA6802F4E062044B1343CB60BFF3D0
S2140061904F8F00BFFDE700BF00ED00E00400FA05EA
S2140061A000239B6AB3F5C04F07D21A680A4B9A427F
S2140061B007D000230370836070470023037083605A
S2140061C070470123037000239A6A926842609B6AB4
S2140061D09B698360704700BF07B0CD5E00239B6A53
S2140061E0B3F5C04F18D230B585B005460C4601232E
S2140061F08DF8043000230293039301A8FFF7D0FF25
S214006200039B13F4806F05D000239B6A1B6C21460A
S2140062102846984705B030BD7047144B1B68B3F14D
S214006220FF3F06D04FF4001202FA03F3104A13663B
S2140062307047104B1B78BBB90F4B4FF480725A66F1
S21400624003F5A6235B681BB9094B4FF400121A66C8
S214006250094B4FF400725A6603F5AE235B681BB910
S214006260034B4FF480021A66704700BF04080020F4
S2140062700090004408140020009000500C4B1B684F
S214006280B3F1FF3F12D10B4B1B787BB90A4B5B680F
S21400629013F0010F02D0064B00221A60074B5B6812
S2140062A013F0010F02D0024B01221A60704700BFA4
S2140062B0040800200814002000C005500000065006
S2140062C000239B6AB3F5C04F26D21B6BB3F5C04FB5
S2140062D025D200B585B001238DF804300023029343
S2140062E0039301A8FFF75CFF039B13F4803F19D0CC
S2140062F0029BC3F307421B0E17D0012B07D00023C7
S2140063009B6A1B6B1B6C984705B05DF804FB0A2A5A
S214006310F5D840F20110F7E740F20110704740F25E
S2140063200110704740F20110EEE740F20110EBE773
S21400633000230360704703680B600160704700E04D
S2140063401846036823B18B42FAD10B680360704786
S2140063507047FEE710B4154B154A9A60D3F88820AC
S21400636042F47002C3F88820124A4FF40041916646
S21400637001F1884101F500524FF0FF3010664FF6EC
S214006380DF7050660220C3F8D000BFF34F8FBFF314
S2140063906F8F09480824C0F880414FF44033D3601B
S2140063A004600B615DF8044B704700BF00ED00E031
S2140063B0006000000090005000E100E013462AB99B
S2140063C0704750F8043B41F8043B13465A1E002B16
S2140063D0F7D1704708B50448044A121A92100449C7
S2140063E0FFF7ECFF08BD00BFF0C80300F0C80300CD
S2140063F0DC2C00200048704700B4C404002070471E
S21400640000487047002D31014FF06041D1F8003E42
S214006410012282401343C1F8003E002070474FF02F
S2140064206041D1F8003E0122824023EA0203C1F80F
S214006430003E0020704708B50820FFF7E5FF08205B
S214006440FFF7EDFF08BD4FF06043D3F8803E13F032
S214006450010F01D1112070470E4AD2F8FC3043F0EC
S2140064608073C2F8FC304FF06043D3F8002E4FF034
S214006470010C0CFA00FC42EA0C02C3F8002E53F89A
S2140064802030002BE8D04FF0604303F820100020A7
S214006490704700BF00ED00E0104B5B78ABB10728FB
S2140064A015D8B1B10D4B03EB00131B7C9BB10C4B05
S2140064B01B6D0122824013EA020003D001230B70F9
S2140064C00020704700230B70704706487047064848
S2140064D07047054870470548704700BF08140020FD
S2140064E000000450028000F0018000F0078000F0F9
S2140064F0F8B51C4B1F6D5B6D1F4002D401250024B0
S21400650002E0FEE701346D00072C2AD83D42F9D0A0
S214006510154B1D65154B03EB04135B68002BF1D080
S214006520124E06EB0416F1680131F160B26820469F
S214006530984780F00100C0B2737C012BE2D100289E
S214006540E0D00A4B03EB441393F890206FF341021C
S21400655083F8902093F8A0206FF3410283F8A020E0
S214006560D0E7F8BD000004500020045008140020B6
S214006570B0F1FF3F01D010B970470248704702489B
S214006580704700BF21E000F024E000F089080023F7
S21400659001E0043001338B4205D20268B2F1FF3FBE
S2140065A0F7D00020704701207047704700238365AE
S2140065B070478164012380F854307047037A0B706B
S2140065C0437A8B70837A0B71C37A8B71037B4B7023
S2140065D0437BCB70837B4B71C37BCB7100207047B2
S2140065E0B0F5207F20D00ED8B0F5007F16D020D88A
S2140065F010B1B0F5C07F04D10F4B186FC0F3033055
S21400660018E0002016E0B0F5607F05D10A4BD3F8FD
S2140066108000C0F301100DE000200BE0064BD3F81D
S2140066209000C0F3046005E0034B186FC0F38020B1
S21400663000E000200130704700800050044B4FF40B
S21400664000225A6603F5804301229A62704700BF13
S21400665000900050014BA3F88401704708140020F6
S214006660024B4FF480321A67704700BF009000500C
S21400667038B505460C46174B4FF400329A66002094
S214006680FFF7AEFF05FB00F0134BDA6902F4803229
S21400669041F67131D9639B6823F440136CB90F49F6
S2140066A0884207D800210B430B498B600AB10022B1
S2140066B0CA6338BD4FF48011F5E7002C07DD0749A3
S2140066C0884201D80021EEE74FF48011EBE74FF443
S2140066D04011E8E70090005000000350005A6202A4
S2140066E008B5002903DD0121FFF7C2FF08BD002120
S2140066F0FFF7BEFFFAE708B5FFF77CFE0021FFF7BD
S214006700B7FF08BD002807DB00F1604000F56140D8
S21400671090F800030009704700F00F00014B185C6A
S2140067200009704714ED00E04209064B53F822308A
S21400673000F01F0023FA00F080F0010000F00100D6
S214006740704700BF00E100E008B51920FFF7ECFF36
S21400675028B1084B4FF00072C3F880211A601A2047
S214006760FFF7E2FF28B1034B4FF08062C3F88021A9
S2140067701A6008BD00E100E038B5EFF3108313F0AF
S214006780010F1BD10446FFF7CFFF0546B8B92046D8
S214006790FFF7B8FF0446EFF3118313B1B0EB131FF6
S2140067A00FD2094B5B68C3F3080343B1103B58B2E2
S2140067B0FFF7A8FFA04202D8012500E001252846E1
S2140067C038BD0125FBE700BF00ED00E010B504462C
S2140067D01520FFF7D1FF30B994F85430002BFBD0CA
S2140067E005E0FFF785FE94F85430002BF9D010BD75
S2140067F0044A536F23F44073417843EA01235367F6
S214006800704700BF004000507047704770477047A1
S2140068107047036C13F0400FFBD0C1637047034B07
S214006820984201D000207047382070470000035A75
S214006830436813F0010F19D00A230363C36C13F0E7
S214006840500FFBD1036C13F0030FFBD1836A8362F6
S214006850C36C13F0010FFBD100E0436B036C13F025
S214006860800FFAD100F5005001234360704710B541
S2140068700446FFF7DDFF0023E360A36041F2020257
S2140068802261E3616361A36123626362E362A364DE
S21400689004F5005201495164A36210BD7F370C0114
S2140068A008B5F9B10A4600F580530121596002F097
S2140068B00F01C36CC3F30A03002BFAD10163C36C48
S2140068C013F07803FBD112F0010F00D0012312F071
S2140068D0040F01D043F00203026C02F003029A4256
S2140068E0FAD108BDFFF7A4FFFBE7704700E0436A54
S2140068F0436913F4807FFAD100F500502023C36368
S2140069007047043021B100F58050012303607047C2
S21400691000F50050F9E7436913F0807FFBD100F5DE
S214006920005001234360704700F580500123436008
S2140069307047022A09D9033AD2B2022A04D821F0B3
S214006940FF03036001717047704721F07F4311F425
S214006950000201D04FF07F4213430360090E01711D
S214006960704770B505460C46466806F00106FFF708
S214006970DBFF2378627843EA0223A278120402F44B
S21400698080321343E27832B14FF400321343C5F835
S214006990983016B170BD0022F8E72846FFF7BBFF17
S2140069A0F8E729B9034A012303FA00F0106070479C
S2140069B0014AF8E7401004504020045008B50A4B3E
S2140069C05B785BB107280BD8074B03EB00131B7CE7
S2140069D043B10021FFF7E5FF002008BD0348FCE7B0
S2140069E00348FAE70348F8E708140020028000F09E
S2140069F0018000F0078000F008B50A4B5B785BB1B9
S214006A0007280BD8074B03EB00131B7C43B101216F
S214006A10FFF7C7FF002008BD0348FCE70348FAE776
S214006A200348F8E708140020028000F0018000F018
S214006A30078000F0064B4FF400329A6603F51C33CD
S214006A4041F67132DA6303F500530122DA607047CB
S214006A500090005008B5FFF7EDFF002008BD084B7A
S214006A6041F67132DA6303F500520121D16000224B
S214006A70DA63A3F518334FF400329A66704700BF06
S214006A800000035008B5FFF7EAFF08BD41B906301D
S214006A90084B53F8200020F0F8004004400C7047E4
S214006AA01230044B53F8200020F0F8004004400C4D
S214006AB0704700BF0080035001281DD0F0B1352874
S214006AC01ED822281ED3223813280BD8DFE800F061
S214006AD01C0C0E100A0A0A0A0A0A0A0A0A0A0A0AF3
S214006AE00A0A0A12002070470220704704207047E6
S214006AF00520704706207047032070470020704727
S214006B0000207047002070470120704708467047F5
S214006B1070B50446C2F3062602F0070241B942EAFF
S214006B20062242F440220634094B43F8242070BD66
S214006B3011463046FFF7EAFF05463046FFF7BCFF32
S214006B4045EA00251234024B43F82450EFE700BF15
S214006B50008003500B784A7843EA8203CA7843EAF7
S214006B6042130A7943EA021300EB4002920002F154
S214006B70B04213630B78012B00D070478A78024B23
S214006B8043F82020F9E700BFE88003504FF0B043F9
S214006B905B680BB9002837D04FF0B0435B6843B151
S214006BA04FF0B0435B6823B14FF0B0439B6A002BB5
S214006BB0F6D180B1154B01225A604FF0B0435B68A6
S214006BC023B14FF0B0439B6A002BF6D14FF0B04391
S214006BD00122DA6070474FF0B0435B6823B14FF094
S214006BE0B0439B6A002BF6D14FF0B0430222DA6026
S214006BF04FF0B0435B6823B14FF0B0439B6A002B65
S214006C00F6D1034B01225A60704700BF00100058AF
S214006C10002000584FF0B0435B6843B14FF0B043DC
S214006C205B6823B14FF0B0439B6A002BF6D1154B3F
S214006C3001225A604378E3B113468278DAB1022221
S214006C401343C278CAB104221343027943EA0213FB
S214006C50427943EAC2034FF0B042936002F5805295
S214006C6001235360037853B101224FF0B043DA603A
S214006C7070470023E1E70022E2E70022E4E7022271
S214006C80F3E700BF00200058024B1868C0F3074027
S214006C90704700BF0080E00F034B9B680A3303F089
S214006CA01F030120984070470080E00F38B5044667
S214006CB01EF07AFCFFF75CFC054608B1284638BD96
S214006CC0FFF7EAFF01462046FFF760FC0028F5D1F3
S214006CD0004DF3E70EE000F00A4B984207D00A4B4F
S214006CE0984209D0C36D43F08003C3657047A3F58F
S214006CF01033C3F88C11F5E7A3F52033C3F89C11C5
S214006D00F0E700BF00C005500000065000F58053B5
S214006D1001225A6040F6AA63436100238360C3657C
S214006D2041F20502C2600361C361C36400F500520C
S214006D300C49916483650C4B984206D00B4B9842E5
S214006D400CD00A4B984204D101E0002303650023CF
S214006D50436500F500500123436070470023036538
S214006D60EFE700BFFFFF010000C00550000006501F
S214006D70836913F0800FFBD0406AC0B2704710B52D
S214006D80046802E02046FFF7F3FFA36913F0800FC4
S214006D90F8D110BD836913F0400FFBD0C16383693F
S214006DA013F0200FFBD0406AC0B27047836913F01F
S214006DB0400FFBD0C1637047F8B50E46154607680E
S214006DC0002407E0315D91FAA1F1090E3846FFF77D
S214006DD0EDFF0134AC42F5D30020F8BD6FF004039C
S214006DE008E003F1604202F56142502182F8001388
S214006DF001335BB23F2B08DC002BF2DA03F00F0105
S214006E00034A0A4450211176F2E70020704700BF7B
S214006E10FCEC00E008B5006CFFF7FBFC002008BDAA
S214006E2029B1036C03F5805301229A647047036C02
S214006E3003F5005301229A64036C03F500535A6469
S214006E407047012900D9704710B5074BD3F8884121
S214006E506C3C05E00521206CFFF722FDE46E6C3CDF
S214006E6014F16C0FF6D110BD0814002070B50E4654
S214006E7015460024234600E00134AC4206D2315DBC
S214006E800020FFF7E0FA03460028F5D0184670BD4C
S214006E904FF06043D3F8803E13F4000FF8D17047EC
S214006EA0002807DB00F01F02400901239340024A36
S214006EB042F82030704700BF00E100E000280CDBFD
S214006EC000F01F024009012393402030034A42F895
S214006ED02030BFF34F8FBFF36F8F704700E100E0A5
S214006EE080F82C10704790F82C0070470346A0B12D
S214006EF090F838201AB190F83C00022805D093F894
S214006F003C00042805D001207047012283F83C206D
S214006F107047012283F83C2070470120704790F8A4
S214006F2039007047037E6BB330B4037A03EB430338
S214006F301B0103F1A04303F58023DC6EC1680569DD
S214006F404B199C4213D0013C8C4201D26C1E0C445F
S214006F502346026B9A4212D01A78112A09D0132AB5
S214006F6007D0013B8B42F4D26B1E0B44F1E70C4674
S214006F70E9E7112A14BF0022012280F834200463B6
S214006F8030BC70477047BFF34F8F0549CA6802F49C
S214006F90E062044B1343CB60BFF34F8F00BFFDE7A7
S214006FA000ED00E00400FA05BFF35F8F074B5A6A56
S214006FB022F480325A62D3F8942022F00102C3F8F9
S214006FC09420BFF34F8FBFF36F8F704700ED00E044
S214006FD001F00303DB004FF0FF0C0CFA03FC07295B
S214006FE00ED810B54FEA910E0EF10C0150F8214064
S214006FF09A40624002EA0C02624040F8212010BD2E
S214007000704770B5FFF7D0FF244C254EB44242D0EF
S21400701026F01F05203DA02200212248FFF7D8FFBA
S214007020B5F1005F0FD32049D1F88C3145F001054A
S2140070301E4AC2F898301E48C2F89C00C2F8A050FB
S2140070400133C1F88C31B44212D01F3424F01F042F
S21400705044F003041449D1F88C31144AC2F898302D
S214007060C2F89C401348C2F8A0000133C1F88C3126
S214007070BFF35F8F0D4B0522C3F894205A6A42F483
S21400708080325A62BFF34F8FBFF36F8FBFF34F8FBD
S214007090BFF36F8F70BD4FF08045BCE7500B0020EC
S2140070A06C09002090ED00E00814002000ED00E0E0
S2140070B003000020E1FFFF3F70B505460E4614466C
S2140070C0FFF772FF1F2C51D915F01F0F02D025F0C5
S2140070D01F05203516F01F0F01D026F01F060023CF
S2140070E00DE066451DD10123002423E02A49D1F88E
S2140070F0982022F0FF02C1F898200133DBB2274A1D
S214007100D2F88C21934213D22349C1F89830D1F893
S2140071109C2022F01F02D1F8A04024F01F0C9542BC
S214007120DFD06545E2D89642E0D30123282401E06B
S21400713000231C46DBB9012211461948FFF748FF19
S21400714025F01F0545F003051449D1F88C3126F0CB
S2140071501F0646F00306104AC2F89830C2F89C5044
S214007160C2F8A0600133C1F88C3100E00024BFF300
S2140071705F8F094B0522C3F894205A6A42F4803286
S2140071805A62BFF34F8FBFF36F8FBFF34F8FBFF3BC
S2140071906F8F204670BD00BF00ED00E00814002091
S2140071A090ED00E008B5FFF7EEFE08B5FFF7FAFF32
S2140071B008BD024BD3F89001704700BF08140020AA
S2140071C0064BD3F8943103FB00F000F5742000F270
S2140071D03F20034BA3FB0030800C704708140020B0
S2140071E083DE1B43012000E00130022806D8421E41
S2140071F0034B134493F89831002BF5D0C0B2704778
S21400720008140020F8B506460F46032903D8DFE821
S21400721001F00A040608002506E0042504E010250F
S21400722002E0402500E00125032E05D8DFE806F041
S21400723002080B0E45F002050C4BD3F89C4109E002
S21400724045F00805F8E745F02005F5E745F0800528
S214007250F2E7246844B163681A682A42F9D05B688A
S214007260394630469847F4E7F8BD00BF08140020BA
S214007270EFF3108072B6704700B962B67047164BCF
S2140072801B79834227D010B582B0044600238DF8C0
S214007290043002238DF8053010B900238DF8053030
S2140072A001A8FFF7A5FA64B14020FFF789FF0B4A53
S2140072B0D2F8A0311B1AC2F8A031074B1C7102B0DD
S2140072C010BD4020FFF77CFF044AD2F8A0310344EB
S2140072D0C2F8A031F1E77047040800200814002027
S2140072E0024B012283F8A421704700BF0814002037
S2140072F00120704708B54FF4C870FFF761FF08BD5E
S214007300074B93F8A5314BB1054BD3F8A80100EB1A
S214007310D000034BD3F8A031184470470020F8E79C
S214007320081400207047024B93F8A501704700BF71
S214007330081400200F4BD3F8AC31002201E01A46A7
S2140073409B680BB18342FAD183420FD14AB183685E
S2140073509360836863B15A6941690A445A610020A0
S21400736070478268034BC3F8AC21F2E702207047EF
S21400737000207047081400200B49D1F8AC310022D9
S21400738081F8B02106E0084B012283F8B02170474F
S21400739059690A44012A06D8D98811F0020FF2D199
S2140073A09B68002BF4D17047081400204FF0B043C0
S2140073B09B6A13F0080FF9D14FF0B043186A704774
S2140073C008B5FFF7F3FF0C4AD2F8AC31D2F8B42177
S2140073D0821A03E0521A002159619B683BB132B110
S2140073E059699142F6D3891A59610022F5E7024B92
S2140073F0C3F8B40108BD00BF081400204FF0B04326
S214007400186C704710F0010F0BD1002310F0020F1C
S21400741001D043F040034FF0B04291690B439361B3
S21400742070470123F2E710F0010F15D1002110F08C
S214007430020F0AD041F04001084B01225A714FF06A
S214007440B042D36B23F00303D3634FF0B04293698B
S21400745023EA0103936170470121E8E7040800204E
S21400746010F0020F02D0024B40225A61704700BF54
S214007470001000584FF0B0435B69012804D0022882
S21400748005D1C3F38010704703F001007047002059
S21400749070470369C268934204D881688A1A134405
S2140074A0581E7047981A01387047704708B5FFF79E
S2140074B0EBFB012800D008BD094B5A6E03F580533C
S2140074C04FF48021596603F510430421196212F423
S2140074D0802FF0D1A3F500434FF480225A66EAE7E6
S2140074E0008000507047704770477047704770477D
S2140074F008B5034BD3F8D821D3F8B801904708BD98
S21400750008140020022907D808B5044BD3F8B801A0
S21400751008B1436A984708BD704700BF08140020AA
S214007520FEE7704770477047C1F12001C8417047B9
S2140075302DE9F04F83B081468846D0F800B0D0F8E9
S21400754004A087680097C36801931E4655465A46AE
S214007550002417E087EA06032B40734021461344B5
S214007560234A52F82400034458F8210002EB840210
S214007570D2F800111844FFF7D7FF013432463E46D2
S2140075802F4605443F2C21D82309012B0BD0022B74
S21400759013D0002BDED065EA06037B40C4EBC401A3
S2140075A001F00F01DBE785EA070333407B4004EB7D
S2140075B08401013101F00F01D1E785EA070373402A
S2140075C004EB4401053101F00F01C8E75A44C9F83D
S2140075D000205544C9F80450009B1F44C9F80870A1
S2140075E0019B1E44C9F80C6003B0BDE8F08F00BFD5
S2140075F0EC550200884200DC08467047A0F13003D4
S214007600DBB2092B17D9A0F14103DBB2192B14D931
S21400761020381A2824D8DFE800F013232323261561
S214007620232323231719231B1D1F2323232323234D
S21400763023232323210058B27047373840B27047BF
S2140076402420704726207047272070472820704740
S214007650292070472A2070472B2070472C2070471F
S2140076604FF0FF3070472520704738B505460C466A
S2140076704CB1013CA4B2285DFFF7C0FFB0F1FF3F5C
S214007680F6D1002000E0012038BD41B1013989B2B1
S214007690435C303BDBB2092BF7D900207047012052
S2140076A07047092803D91A280CD8094B00E0094B63
S2140076B001EB4101CB4003F0070303F10800072B61
S2140076C003D070474FF4F773F2E71020F9E700BFD6
S2140076D0DCDD03000AB8BB0700FB00F00730C0087B
S2140076E070470730C0F3CF00704770B50468013AA2
S2140076F052B213E08668E50816F805C021FA02F3D0
S21400770003F001036FEA040E0EF0070E03FA0EF301
S2140077104CEA03037355013A52B20134002AE9DAFF
S214007720046070BD10B4046804FB02116FEA010C1B
S2140077300CF0070C012202FA0CF253B15FFA82FC3D
S2140077408268C908535C43EA0C0353545DF8044B43
S21400775070478068C908435CD24352B21340435412
S214007760F4E710B5046804FB02116FEA010C0CF094
S214007770070C012202FA0CF28468C908605C40FA21
S2140077800CFC0CF0010C9C4505D05FFA82FE40EA2A
S2140077900E00605410BDD24352B210406054F9E758
S2140077A0036803FB02118268CB08D05CC94301F072
S2140077B00701084100F0010070472DE9F8438146B3
S2140077C088461646077800258DE02B19DBB283F035
S2140077D0010303F001032A4621464846FFF7C1FF8E
S2140077E00134E4B2BC427CD22A4621464046FFF72A
S2140077F0D7FF03460028F3D1072EECD801A252F893
S21400780026F000BFCB770000257800002F78000018
S2140078104B780000657800007B7800009D780000BB
S214007820BD78000085F0010303F00103D3E7314A79
S214007830A2FB043202F0FE0303EB5203E31A13F03A
S214007840FF0F0CBF01230023C5E763192A4A82FBFA
S2140078500312A2EBE37202EB4202934214BF002330
S2140078600123B8E7234AA2FB04326B0803EB52035A
S21400787083F0010303F00103ADE705FB04F202F019
S21400788001011D4B83FB0203A3EBE27303EB4303EF
S214007890D31AD9420CBF012300239CE705FB04F250
S2140078A0154B83FB0213A3EBE27303EB4303C3EB1B
S2140078B0420383F0010303F001038CE72B1903F066
S2140078C0010305FB04F10C4A82FB0102A2EBE17204
S2140078D002EB42028A1A134483F0010303F0010309
S2140078E079E70135EDB2BD4201D200247AE7BDE862
S2140078F0F88300BFABAAAAAA5655555570B50E46D2
S21400790014461D469DF810302A462146FFF70AFF0A
S21400791001232A4621463046FFF704FF70BD2DE9B5
S214007920F04782B081468A4616461F46D0F8008049
S2140079306FF003052DE0002100E000210091514684
S2140079404846FFF7DBFF013464B2042C1FDC85EAEF
S214007950E570A0EBE57084EAE471A1EBE471C9B2CE
S214007960C0B2FFF747FEC0B27B193219EBD45FFAFC
S21400797088F18A42E7DA002BE5DB9942E3DDD2B2F2
S214007980DBB20228D9D00428D5D00121D6E70135AC
S2140079906DB2042D02DC6FF00304D6E702B0BDE83A
S2140079A0F0872DE9F04F83B083468A469146984685
S2140079B06FF0010721E0CCB204EB0905EDB208EB4D
S2140079C00706F6B287EAE770A0EBE7700029B8BFB3
S2140079D04942C9B2C0B2FFF70DFE013818BF0120F8
S2140079E0009033462A4651465846FFF787FF013433
S2140079F061B20229DFDD01377FB2022F02DC6FF0B1
S214007A000101F6E703B0BDE8F08F2DE9F04182B042
S214007A1005460E46077843EAC2031C46002007E0E8
S214007A20610A40F2375C0CFB01F181EA4404013044
S214007A300928F5DD44EA832484F4A84484F012047B
S214007A404FF000080EE024FA08F303F00103009359
S214007A504346082231462846FFF750FF08F1010842
S214007A605FFA88F8B8F1050FEDD9C4F380130093D8
S214007A700723082231462846FFF740FFC4F3C01309
S214007A80009308231A4631462846FFF737FFC4F30B
S214007A90002300930823072231462846FFF72EFFCF
S214007AA0092312E05FFA83F824FA03F3C8F10E0202
S214007AB003F0010300930823D2B231462846FFF7AD
S214007AC01DFF08F101084FFA88F30E2BEADD0023AC
S214007AD014E05FFA83F8A7EB0802D2B224FA03F3A5
S214007AE0013A03F0010300930823D2B23146284638
S214007AF0FFF704FF08F101084FFA88F3072BE8DDCB
S214007B00082214E05FFA82F808EB0703DBB224FAD7
S214007B1002F20F3B02F001020092DBB2082231466D
S214007B202846FFF7EBFE08F101084FFA88F20E2A06
S214007B30E8DDA7F1080301220092DBB208223146F5
S214007B402846FFF7DBFE02B0BDE8F0812DE9F04FD6
S214007B5083B0D0F800A0062A37D980468946174653
S214007B60002308E0F90A41F6257000FB01F181EADE
S214007B7047070133DBB20B2BF4D947EA023700255F
S214007B8021E027FA05F606F00106114BA3FB0532A5
S214007B9002F0FE0404EB52042C1B5444E4B20B3CEB
S214007BA0E4B24FEA520B00965B46224649464046F0
S214007BB0FFF7A4FE009623465A4649464046FFF77E
S214007BC09DFE0135EDB2112DDBD903B0BDE8F08F77
S214007BD0ABAAAAAA2DE9F04F85B003908846136891
S214007BE001939368029390F800B00BF1FF3A0027D8
S214007BF043E04FF0050A46E04D4618E00136012EF8
S214007C002FDC5FFA8AF4F3B2E41AE4B2CAF34E0346
S214007C1083F0010303F00103052C8CBF0022012230
S214007C209342E9D0ABEB0905EDB2013DEDB22A4631
S214007C3021464046FFF7B4FD0028DFD1019B9F4256
S214007C40DCD2FB08029AD35CFA4302F00702134127
S214007C5003F001032A4621460398FFF763FD013728
S214007C60CCE709F101025FFA82F9D94501D2002674
S214007C70C5E7AAF102010FFA81FABAF1000F05DD95
S214007C80BAF1060FB5D04FF00009EEE705B0BDE833
S214007C90F08F2DE9F04F85B0804690F800900027D1
S214007CA0BA461AE00135EDB2052D04D0052D04D9EB
S214007CB00AF1010A01E00AF1030A0134E4B24C4574
S214007CC009D23A4621464046FFF76AFD8642E9D089
S214007CD006460125F1E70137FFB24F4508D23A467E
S214007CE000214046FFF75CFD064601252C46E6E7E8
S214007CF000271AE00135EDB2052D04D0052D04D974
S214007D000AF1010A01E00AF1030A0134E4B24C4523
S214007D1009D2224639464046FFF742FD8642E9D060
S214007D2006460125F1E70137FFB24F4508D200228B
S214007D3039464046FFF734FD064601252C46E6E761
S214007D404FF0000BCDF808B0CDF80490CDF800A0A9
S214007D505FE0574538D1874236D1009B0333009306
S214007D6032E0009B283300931FB1029B01339BB285
S214007D7002930135EDB2019B9D4246D25A462946F2
S214007D804046FFF70DFD0746F5B1BBF1000F1BD0CF
S214007D9005F1FF395FFA89F90BF1FF3A5FFA8AFAC3
S214007DA0524649464046FFF7FBFC0390524629469A
S214007DB04046FFF7F5FC82465A4649464046FFF7DE
S214007DC0EFFC039B9F42C4D07600C6F30A063E43F0
S214007DD0B6B26400C4F30A0424B22A4659464046A2
S214007DE0FFF7DEFC00B20443A4B2092DBCD95D2E19
S214007DF002D0B6F5BA6F02D1009B283300935D2CF3
S214007E00AFD0B4F5BA6FAFD1ABE70BF101025FFAB2
S214007E1082FB019B9B4503D200252C462E46AAE7F3
S214007E20DDF808C0DDF800A003FB03F9002203E03C
S214007E300AF10A0A013292B20CEB8C018800C2F1F8
S214007E40090309FB03F3B3EB810FF1DC02F10B032B
S214007E5003FB09F39842EBDC504605B0BDE8F08F13
S214007E604FF0070C0022BCF1000F1CDB00B5D30955
S214007E7003EBC30E03EB4E03C3EB03139BB283EA81
S214007E8042039BB241FA0CF202F0010200FB02F23E
S214007E905A400CF1FF3C4FFA8CFCBCF1000FE6DABE
S214007EA0D0B25DF804FBD0B270472DE9F04F83B036
S214007EB00746894601929B460C9D9DF834604FF01C
S214007EC0000A22E006FB03F15A1E06FB02F2695C7A
S214007ED0A9540133DBB2BB42F4D37B1E06FB03F38B
S214007EE00024EC540BE0414619F80400FFF7B8FFF5
S214007EF006FB04F2AB5C4340AB540134E4B2BC4234
S214007F00F1D30AF1010A5FFA8AFADA4507D2019B31
S214007F1013F80A802B7888EA03080123DBE703B00E
S214007F20BDE8F08F2DE9F04780460F4616461C4602
S214007F3011463846FFF7A9FBC0B981463146384698
S214007F40FFF793FB00286AD0042202214046FFF781
S214007F50CCFB01212046FFF7A4FB024631464046F3
S214007F60FFF7C3FB4D460024214636E004220121DC
S214007F704046FFF7BAFB00212046FFF792FB024679
S214007F8031464046FFF7B1FB00242246214601E079
S214007F900134A4B2B44212D23B5D01EB810103EB83
S214007FA041039BB2303B99B20132D2B2032AEFD1E1
S214007FB00A224046FFF799FB00210A46E8E70AB97D
S214007FC0002046E002EB42020132D2B24046FFF702
S214007FD08CFB00203DE00134A4B2B44216D201EB83
S214007FE04101C1EB01111FFA81FA385DFFF706FB6C
S214007FF01AFA80F081B20135EDB2022DEBD10B22D8
S2140080004046FFF772FB4D460021E4E70DB901201C
S2140080101FE006224046FFF768FB012019E0042215
S21400802011464046FFF761FB02212046FFF739FB69
S214008030024631464046FFF758FB002406E0082279
S214008040395D4046FFF751FB0134A4B2B442F6D383
S2140080500220BDE8F0872A4B93F8DC3103B9FEE72F
S21400806000B583B000230093019308236A46254990
S214008070254815F04FFA30BB244BD3F840311F2B60
S21400808018D9224BD3F84031203B01229A40019B5D
S2140080901343019308236A461A491B4815F0F0F962
S2140080A04FF0005340F20B221A804FF20F025A8014
S2140080B0FEF764F8154BD3F8403101229A40009B36
S2140080C013430093E6E7124A9042E9D10F4BD3F8E8
S2140080D040311F2B0DD90D4BD3F84021203A0123F8
S2140080E09340019308236A460649074815F0C8F9E5
S2140080F0D6E7064BD3F84021012393400093F1E7DF
S2140081000814002000710800E815002000800044D4
S2140081100BE000F008B5FEF71DF9FEF75BF9124A12
S2140081200AE01068516850F8230041F82300013334
S21400813091688B42F5D30C320C4B9A4201D2002345
S214008140F6E70B4A08E01168002041F823000133E7
S21400815051688B42F7D30832064B9A4201D200236D
S214008160F6E706F0D5FE00BFE0BC0300ECBC03005B
S214008170ECBC0300ECBC030010B5044602E0202073
S21400818007E09047F4B194FAA4F00028F7D0B0FACC
S21400819080F00123834024EA03040B4B03EB001317
S2140081A0D3F83422002AEDD0074B03EB001393F8E4
S2140081B03C32002BE5D0044B03EB0013D3F8381207
S2140081C09047DFE710BD00BF0814002008B5084B35
S2140081D0D3F82404D3F82024104000F0553020F0C3
S2140081E0502003F50053C3F82004FFF7C5FF08BD71
S2140081F000C0035008B5084BD3F82404D3F8202455
S214008200104000F0AA3020F0A02003F50053C3F879
S2140082102004FFF7B1FF08BD00C0035008B50249AF
S214008220024815F053F808BD0C080020E815002099
S21400823008B50346084613F0030F02D111F0030FEA
S2140082400AD0920019461BF052FF002008BD53F8D2
S214008250041B40F8041B013A002AF8D1F5E72DE983
S214008260F843064688461746C5684FF0000918E0EA
S2140082705B1B5A1EB3685C1B944228BF1446BC4264
S21400828028BF3C4670682246414628441BF02FFF14
S214008290A144A0443F1B2544B368AB4209D0F56017
S2140082A04FB133699D42E3D3B2685B1B1A44013A6F
S2140082B0E0E70025F3E74846BDE8F8832DE9F843F4
S2140082C0044688461646C5688768A7EB05099145A3
S2140082D007D9406828441BF00AFF3544E560BDE82E
S2140082E0F88340684A4628441BF001FFED1B3544DE
S2140082F02A4608EB090160681BF0F9FEE560EEE728
S214008300F8B50F461646184B451C05EB450503EB1E
S214008310C50500EB400003EBC003DC6A012C11D05E
S214008320022C1CD014B100242046F8BD2846FFF7C6
S214008330B0F88642F8D8324639462846FFF7BEFFE0
S2140083403446F1E72846FFF7A4F83446864228BFAD
S2140083500446224639462846FFF7B0FFE4E728469B
S214008360FFF77DFF0446DFE75C0B0020F8B5054607
S2140083700E46940022461DF013F9FEF7F9F807465C
S21400838028B92246314628461DF0E0F808B9384696
S214008390F8BD014FFBE700BF10E000F010B5154C2C
S2140083A0A822002120461BF0A4FC0323236163615E
S2140083B01149A16104F1A803E3614FF480622262CF
S2140083C00023A3626362E362216604F59561616639
S2140083D0A2662367E366636708E0C3F10F01074AF6
S2140083E00A4492F80012034AD15401330F2BF4D9F1
S2140083F010BD00BF5C0B0020E0550200EC550200EB
S2140084002DE9F047044688469146254B1B78DBB29B
S214008410532B18D104EB4402214B03EBC2031F6F0E
S214008420DD6EAF4212D80026ED1B4D4528BF4D46E7
S2140084303DBB2EB104EB4404194B03EBC4031F678A
S2140084403046BDE8F087FFF7A9FFE3E71346144A76
S21400845002EBC30ADAF86860F61B4E4528BF4E46A4
S214008460DAF864103246394440461BF040FEB04409
S214008470A9EB06093744DAF86830BB42D4D10027A6
S214008480D2E704EB4402064B03EBC203596E2A46BE
S214008490394440461BF02BFE2E442F44C9E700BF4C
S2140084A05C0B002010B50B46EFF311844FF0200153
S2140084B081F311881946FFF7A3FF84F3118810BDD6
S2140084C010B51C460020FFF7EDFF206008B1002025
S2140084D010BD1B20FCE7F8B504460D4616460B4BB0
S2140084E01B78DBB2532B0DD1EFF311874FF0200131
S2140084F081F31188324629462046FFF701FF87F3AD
S2140085001188F8BDFFF74AFFEEE700BF5C0B0020BE
S21400851008B50020FFF7DFFF002008BDF8B50446C9
S2140085200F4616461D46174B1878C0B2532823D15F
S214008530022C24D8EFF311834FF0200181F3118829
S214008540194674B10F48182304FB033200EB020CE3
S2140085508750CCF8046003FB040215620023936284
S214008560536204EB4404074B03EBC403069ADA6237
S21400857081F311880020F8BDFFF710FFD8E74FF011
S214008580FF30F8E75C0B0020F8B504460F461646A9
S2140085901D46144B1878C0B253281DD1022C1ED885
S2140085A0EFF311804FF0200181F311884CB10D4B91
S2140085B0182202FB04331F665E669D6600221A6759
S2140085C0DA6604EB4404074B03EBC403069A5A67C7
S2140085D080F311880020F8BDFFF7E0FEDEE74FF0DD
S2140085E0FF30F8E75C0B002008B50346084600217C
S2140085F019609A80986092B21BF07BFB08BD38B574
S21400860004460D4610462260FFF766F80246A08034
S214008610A560002128461BF06CFB38BD2DE9F04113
S21400862006460D460246002128461BF062FB731ED6
S2140086300127EF544FF000081FE00134E4B2B442C3
S2140086400CD2F9B2285DFFF70BFC2855631CB34229
S214008650F3DA2B195B7858402855EEE7FB0903EB55
S214008660C30203EB4203C3EB03139BB283EA470345
S2140086709FB208F101085FFA88F8B04501D20024DD
S214008680DDE7BDE8F08110B52F4B4FF000425A668B
S21400869003F50B2303F5805201215160596C01F05C
S2140086A001014AF6CD321A6418BB9C6814F0010426
S2140086B012D003F5005301229A600023234AD26A9F
S2140086C012F0010F04D1224A934201D80133F5E794
S2140086D01F4A93420BD800241E4B01225A6011B148
S2140086E01A4B1D4A1A641CF0B5FB204610BD072421
S2140086F0F2E70023154AD26A12F0080F04D0144A93
S214008700934201D80133F5E7114A934218D80F4B2C
S21400871003F500522020506203F5805301229A6030
S214008720002300E00133094A526A12F0200F02D1FA
S214008730074A9342F6D9064A934203D80024CEE766
S2140087400724CCE70724CAE70090005000400950F1
S2140087503F420F00006009503254FFFF10B51B4B1C
S2140087604FF000425A661A4A02F5805301215960BA
S214008770546C0C404AF6CD33136443788B400B435D
S2140087801449CB63936823F07403827843EA021398
S214008790C278C2B1042213430D4A936001798379EB
S2140087A043EA012313614179C37943EA0123536104
S2140087B00078FFF768FF14B1054B074A1A641CF0EF
S2140087C049FB012010BD0022E5E700BF00900050E5
S2140087D000400950004000503254FFFF00B583B0FF
S2140087E06B46064A92E8030083E803001846FFF744
S2140087F0B5FF002003B05DF804FB00BF0058020080
S21400880038B504461CF039FB054DA446BCE80F00FD
S2140088100FC59CE8030085E80300002038BD00BFB4
S2140088203818002008B50348FFF7EAFF01201CF0BF
S21400883047FB08BD0858020030B583B004461CF05C
S21400884041FB08B103B030BD694620461CF017FB5B
S21400885000B1FEE79DF80030134A92F824209342B8
S214008860F0D00E2B06D16425104920461CF0F4FAF1
S21400887028B1FEE7204615F0B3FB0546F4E7294687
S21400888020461CF0FEFA00B1FEE7074B93F82430B2
S214008890042BD7D1694620461CF0F1FA9DF800203B
S2140088A0014B83F82420CDE7040800202808002088
S2140088B008B5FFF7C1FF08BD08B515F0F9FD08BDFE
S2140088C008B500211CF051FA002008BD70B58CB028
S2140088D005460E462C22002101A81BF00AFA0123A9
S2140088E08DF808304FF42872ADF80A2002228DF871
S2140088F00C208DF80D308DF80E208DF80F30642387
S2140089000493B62205920693C02307930B238DF893
S2140089102C3001A9284615F0EFFB044658B9B11FC4
S21400892003291DD8DFE801F0020D1217284615F0BE
S21400893011FC0446B4B128461CF008FB20460CB0D7
S21400894070BD284615F00CFC0446F3E7284615F0E3
S21400895013FC0446EEE7284615F008FC0446E9E753
S2140089600124E8E7082128461CF0FFF9E6E708B5E9
S21400897031B18B1FDBB2032B05D8FFF7A7FF01E051
S214008980FFF79EFF08BD0120FCE700B587B0002377
S214008990019302930393049305930B4B02930223D4
S2140089A08DF80D3004228DF80E208DF81330052337
S2140089B08DF814300DEB02014FF0FF301CF0B9FAC1
S2140089C007B05DF804FB00BF006A180008B5002178
S2140089D04FF0FF301CF0B0FA08BD08B5044B18681D
S2140089E0002302221946806812F060FE08BD00BF10
S2140089F0BC08002008B50FF0B7F908BD08B50FF0A1
S214008A0069F908BD10B58AB000230693079308934A
S214008A100993274B0693274906A815F089F8264B95
S214008A20D86230B10023059305A91CF06FFA08B18F
S214008A30FEE7FEE7204C214A0021E06A15F0BAFA6C
S214008A400621E06AFFF793FF00B1FEE71C491A4BC8
S214008A50D86A15F0DBFA00B1FEE713A3D3E90023CA
S214008A60CDE900234FF0FF324FF0FF331249C86ABA
S214008A701CF0E1F900B1FEE7124BB3F83432ADF862
S214008A801030ADF80C3004A90B4BD86A1CF0BBF9BB
S214008A9000B1FEE703A9084BD86A1CF0CAF900B17A
S214008AA0FEE70AB010BD00BF0F16A1FF1F020000B0
S214008AB0FD8900002575000004080020B18800002C
S214008AC007001100EC55020008B5FFF79BFF08BD34
S214008AD008B5FFF7A7FEFFF758FFFFF777FFFFF78A
S214008AE0F3FFFFF7E9FE08BD08B50BF009FA08BD6D
S214008AF008B50BF037FB08BD2DE9F04F87B002AF85
S214008B0080468946FA60BB600678002413E084F04D
S214008B10010505F001050095234606224946404614
S214008B20FEF7ECFE00950623224649464046FEF731
S214008B30E5FE0134E4B2B442E9D303231A464946BB
S214008B404046FEF7ECFE043EF6B2032332464946A4
S214008B504046FEF7E4FE3346032249464046FEF70B
S214008B60DEFEF96801295FD9C7F804D0364BA3FBAF
S214008B700123CA1A03EB5203C3F38702931C5FFA5E
S214008B8083FA202923D00AEB410C4FEA4C0C0CF157
S214008B90010C0AF1FF3149009CFBF1FC4FEA4C0C3A
S214008BA05FFA8CFC0132D4B20AF1FF3B0AF10702ED
S214008BB002F4FC72ADEB020D02AE06228DF8082020
S214008BC0FB689A00D2B20A32D2B200200AE04FF016
S214008BD01A0CE7E7631E32550130C0B2A2EB0C0256
S214008BE0D2B2DCB28345F5DC002517E044B1A345DC
S214008BF00CD105E0335DB25C49464046FEF7D1FE37
S214008C000134E4B2544507D2002DEFD02A46AB45D6
S214008C10F0D1002CEED1F3E70135EDB2554501D287
S214008C200024EFE7D7F804D00023BA684946404648
S214008C30FEF7EBFEFA6849464046FEF787FF143714
S214008C40BD46BDE8F08F00BF254992242DE9F04FC0
S214008C5087B002AF15463A600138544A01EB8103EB
S214008C6002EBC303034493F8384201EB810100EBA7
S214008C70C10302EB4303B3F8D8A202EB4002B2F8FA
S214008C8018347B609AFBF4FA5FFA8AFADB0893FBE7
S214008C90F4F204FB1236F6B2A61BF6B25FFA82F9BD
S214008CA0A9EB0A095FFA89F9AA88D31DDB08694689
S214008CB0A1EBC3039D460DF10808002140461BF0BA
S214008CC018F80AF1070303F4FC73ADEB030D02ABCF
S214008CD0FB6019465046FFF7A1FCAD684FF0000B4D
S214008CE0584617E0624492B20133DBB20846A3420C
S214008CF00CD2411C89B215F802E008F800E0B34235
S214008D00F0D10CF1010C5FFA8CFCEBE70BF1010BD8
S214008D105FFA8BFBCB4503D25A46CC460023E6E7E8
S214008D2006FB099189B2CC46002304E0614489B26F
S214008D300133DBB21046A21B93420CDA421C92B2FD
S214008D4015F801E008F800E0002BEFD10CF1010C5B
S214008D505FFA8CFCEAE74FF0000BC7F808A08246E3
S214008D600FE00AEB0B030194434400934B462A465C
S214008D70F968B868FFF799F84D440BF1010B5FFAF4
S214008D808BFBA34506D2B345EBD109F101095FFA87
S214008D9089F9E6E73C68A2884146A0681BF0A7F977
S214008DA07A6822601437BD46BDE8F08FEC550200A5
S214008DB0034B93F85C340BB10248704700207047B1
S214008DC0081400205018002008B54FF0005340F259
S214008DD002221A804FF20F025A80FDF7CFF908B52B
S214008DE000239B6AB3F5C04F06D21B6BB3F5C04F8A
S214008DF005D29B68984701E04FF4817008BD4FF498
S214008E008170FBE70346064A106B0344054A93420B
S214008E1002D8034A136370474FF0FF30704700BF15
S214008E20040800200080002000487047C0EA2101A6
S214008E3008B5094B1B6F03F00703022B04D0032B66
S214008E4005D0012B06D0FEE7FFF7EEFF03E0034B4D
S214008E50586B00E0024808BD00800050040800205F
S214008E60002D310108B5FFF7E3FF054B1B6FC3F379
S214008E7003330133B0FBF3F0024BC3F8600408BDC4
S214008E80008000500814002008B5064B5863064BB7
S214008E901B6F03F00703032B00D008BDFFF7E2FFAC
S214008EA0FBE700BF040800200080005008B5124B06
S214008EB093F8A4311BB9114B01225A6708BD0E4B1B
S214008EC0002283F8A4210E4B1A6F22F0070242F00C
S214008ED001021A67D3F8202142F00302C3F82021CA
S214008EE0D3F8242122F0070242F00302C3F824211B
S214008EF0FFF7B8FFDFE700BF0814002000E00050CF
S214008F000080005038B505460C46FFF791FF05B1C6
S214008F1028600CB10D23236038BD014B586B704799
S214008F200408002038B505460C46174BD3F8240134
S214008F3000F00700062823D8DFE800F0040A121A1B
S214008F401E0E1600012305B1286004B1236038BD4B
S214008F50FFF76AFF0523F6E7FFF766FF0623F2E74B
S214008F60FFF7DBFF0323EEE7FFF7D7FF0423EAE76D
S214008F70FDF746FA0223E6E7FDF740FA0723E2E7A5
S214008F8000231846DFE700BF0080005038B50546CE
S214008F900C46104BD3F8200100F00300032815D828
S214008FA0DFE800F002080C10012305B1286004B1C8
S214008FB0236038BDFFF738FF0523F6E7FFF7ADFF60
S214008FC00323F2E7FDF71CFA0223EEE70023184618
S214008FD0EBE700BF0080005070B582B006460D4635
S214008FE0002301930D4BD3F8804104F00304012CB9
S214008FF009D0022C0DD000240EB1019B336005B1C0
S2140090002C6002B070BD002101A8FFF7BFFF0F243F
S214009010F2E7FDF7F5F90190EEE700BF008000509B
S2140090204FF4004070474FF47A7070474FF400409A
S214009030704738B505460C460F4BD3F8000100F0D4
S2140090400300032815D8DFE800F002080C100123FF
S21400905005B1286004B1236038BDFFF75EFF032327
S214009060F6E7FFF7E3FF0823F2E7FDF7C7F9072364
S214009070EEE700231846EBE70080005038B50546BB
S2140090800C46104BD3F8400100F00300032815D817
S214009090DFE800F002080C10012305B1286004B1D7
S2140090A0236038BDFFF7BCFF0923F6E7FFF7BEFFD6
S2140090B00823F2E7FFF7B7FF0B23EEE70023184677
S2140090C0EBE700BF0080005008B50B4BD3F820320A
S2140090D003F00303012B08D0022B09D008B10023AC
S2140090E0036021B100230B6001E0FFF74FFF08BDCE
S2140090F0FFF7C4FFFBE700BF0080005030B583B029
S21400910005460C46002301934FF0E0231B6913F03D
S214009110040F0CD0FFF7A6FE01900C2300930DB1B0
S214009120019B2B600CB1009B236003B030BD6946E9
S21400913001A8FFF7A3FFF2E738B505460C46104B2B
S214009140D3F8600100F00300032815D8DFE800F02C
S21400915002080C10012305B1286004B1236038BD55
S214009160FFF75EFF0923F6E7FFF760FF0823F2E745
S214009170FFF759FF0B23EEE700231846EBE700BF87
S2140091800080005038B505460C460F4BD3F84032E9
S21400919003F00303022B0ED0032B10D0012B06D0B6
S2140091A00023184605B1286004B1236038BDFFF7D8
S2140091B037FF0923F6E7FFF739FF0823F2E7FFF743
S2140091C032FF0B23EEE700BF0080005038B505469F
S2140091D00C46134BD3F8000200F0070004281BD8F7
S2140091E0DFE800F003090D111500012305B1286022
S2140091F004B1236038BDFFF713FF0923F6E7FFF736
S21400920015FF0823F2E7FFF70EFF0B23EEE7FFF745
S21400921029FE800A0E23E9E700231846E6E700BF8A
S2140092200080005010B582B0002301930093B0F583
S214009230807F00F2EF802028C0F0E7802038E0280A
S21400924000F2E580DFE810F02C011E012C011E0163
S21400925033013301330133011E011E0160014F014A
S2140092603E016A014F011E011E011E01E300E300DC
S214009270E300E300E300E30046015B011E011E017C
S2140092801E01F4006F011E01E300E300E300E300AB
S214009290E300E300E300E300E300E300E300E300B1
S2140092A0E3002C01E3002C012C012C013301E30028
S2140092B0E300E300E300E300E300E300E300E30091
S2140092C0E300E300E300E3002C012C01E300E300ED
S2140092D0E300E300E300E300E300E300E300E30071
S2140092E0E300E300E300E300E300E300E300E30061
S2140092F0E300E300E300E300E300E300E300E30051
S214009300E300E300E300E3004B01E300E300E300D7
S214009310E300E300E300E300E300E300E300E30030
S214009320E300E300E300E300E300E300E300E30020
S214009330E300E300E300E300E300E300E300E30010
S214009340E300E300E300E300E300E300E300E30000
S214009350E300E300E300E300E300E300E300E300F0
S214009360E300E300E300E300E300E300E300E300E0
S214009370E300E300E300E300E300E300E300E300D0
S214009380E300E300E300E300E300E300E300E300C0
S214009390E300E300E300E300E300E300E300E300B0
S2140093A0E300E300E300E300E300E300E300E300A0
S2140093B0E300E300E300E300E300E300E300E30090
S2140093C0E300E300E300E300E300E300E300E30080
S2140093D0E300E300E300E300E300E300E300E30070
S2140093E0E300E300E300E300E300E300E300E30060
S2140093F0E300E300E300E300E300E300E300E30050
S214009400E300E300E300E3006501002848D001988C
S21400941002B010BDB0F5906F71D00ED9B0F5D06F18
S2140094207CD049D9B0F5E06F7DD0B0F5F06FEED1C5
S214009430002101A8FFF780FEE9E7B0F5407F52D093
S2140094400FD9B0F5607F2FD100216846FFF75AFD8F
S214009450009C4FF46070FDF7C3F8B4FBF0F4019481
S214009460D5E7B0F5007F0AD1FFF7E2FC04464FF4DB
S2140094700070FDF7B5F8B4FBF0F40194C7E7B0F55B
S214009480207F0AD1FFF7EEFC04464FF42070FDF76C
S214009490A7F8B4FBF0F40194B9E7B0F5C07FB6D1F5
S2140094A0FFF7E0FC0190B2E7B0F5806FAFD1002186
S2140094B001A8FFF76BFDAAE7B0F5B06F24D0B0F5B2
S2140094C0C06F04D1002101A8FFF7D8FD9FE7B0F5D3
S2140094D0A06F9CD1002101A8FFF7F6FD97E7FFF7E4
S2140094E0A7FC019093E7FFF7BDFC04464FF42070FD
S2140094F0FDF776F8B4FBF0F46408019487E70021E2
S21400950001A8FFF70FFD82E7002101A8FFF764FD21
S2140095107DE7002101A8FFF7F1FD78E7002101A80B
S214009520FFF754FE73E7002101A8FFF72BFE6EE756
S21400953008B58020FFF776FE034B984203D8034B0E
S2140095404FF480321A6708BD005A620200A000502D
S21400955008B54FF4C070FFF765FE054B984205D975
S21400956002214FF4207000F005F808BD0121F8E74D
S21400957080F0FA02B0F5207F48D02DD8B0F5007FF5
S21400958039D04CD810B1B0F5C07F24D110B54C1EE0
S214009590FDF7B1F800F048F8FDF762F8204A136FBF
S2140095A023F4704343EA04331367FFF75BFC1D4B59
S2140095B0D3F8843013F0100FF9D11A4BD3F8841077
S2140095C0C1F38111C1F10201FDF78AF8FFF7C0FF70
S2140095D0FFF7AEFF10BD7047B0F5607F0AD10139C6
S2140095E00F4AD2F8803023F0300343EA0113C2F862
S2140095F08030704770470139094AD2F8903023F01E
S214009600F85343EA0163C2F8903070470139044AC0
S214009610136F23F4806343EA812313677047704710
S214009620008000500040005008B502214FF4207022
S214009630FFF7A0FF08BD38B5044615460846F1B149
S2140096406368A36803F0E003402B23D01DD9602B8A
S21400965024D0802B12D10123400105FB03F3B0FB7D
S214009660F3F020380E4A02EAC002E36C13F0010F52
S214009670FBD1A262E36C13F0010FFBD138BD20468C
S214009680FDF7CDF8FFF7CEFDDAE72BB1202BF5D1AD
S2140096900823E1E70623DFE71023DDE70423DBE703
S2140096A0F8FF7F0070B504460D461646436823B1A2
S2140096B0E36CC3F30A03002BFAD12046FDF7D7F874
S2140096C0236923F44C5323F003036A7B1343EA898C
S2140096D013432A8A13432361A36823F0804323F0AD
S2140096E0E2032A7B13432A7E13436A691343A3606B
S2140096F0AB681BB9A36843F00043A360EA69002A7D
S2140097005FD0A168474B0B40117A43EA8153917AA8
S21400971043EA4143918801F4C0410B43517843EA40
S2140097208103517B43EAC103917B43EA011392789C
S21400973043EA8223A360E36823F4D81323F4C063C8
S214009740EA6911690B4351690B43917943EA812316
S214009750D27943EA4223E360EB691B78012B01D000
S214009760032B03D1E36843F00403E360EB691B7843
S214009770023BDBB2012B3CD92B4B0122C3F8C020A5
S214009780EB695A7A04F580531A62EB695B7A1BB16F
S214009790E36843F40063E360EB69DB7A53B1E368A4
S2140097A043F40043E360EB691B7B03F00F031F4A9F
S2140097B0C2F88030E36923F00303EA69D27B1343DF
S2140097C0E36136B196F82030C3B104F58053012228
S2140097D09A6105212046FDF763F8AA68EAB9297858
S2140097E02046FDF75DF8236CDB4313F4405FFAD1A7
S2140097F070BD0F4B0122C3F8C020C1E7636923F098
S214009800090396F82220134396F82120134343F0C9
S214009810010304F580525361DBE769682046FFF7D1
S2140098200AFFDCE7E39BBDFF00E403500090035013
S21400983000D4035008B500231A46FFF733FF08BDCF
S21400984008B500231A46FFF72DFF08BD08B50B46DE
S21400985069B103F5742303F23F230E4AA2FB0320EB
S214009860800C01387F2828BF7F20C0B208BD2A2080
S214009870FFF7D8FC034650B1074A9042E9D9074A99
S2140098809268C2F302720132B0FBF2F3E1E7012301
S214009890DFE700BF83DE1B43005A62020040005A27
S2140098A038B5054614460B4631B1013B6400B3FBA0
S2140098B0F4F31B02EB6138BD4FF42070FFF7B2FCE7
S2140098C00346F2E738B505460C46FDF71FFA05F5E0
S2140098D0805301225A60AA68238A43F00103A17BC1
S2140098E0002934D04FF480610B431343AB60AB6860
S2140098F0227D002A2DD04FF000521343AB60A37C8C
S2140099004BBB237B43F48053EB60A2686168284618
S214009910FFF7C6FF637B0BB110236B61637D1BB142
S214009920AB6843F48033AB60A37D1BB1AB6843F4F4
S2140099300043AB60E37D1B0703F0E043227E120585
S21400994002F4E0021343AB6523786B6138BD002157
S214009950CAE70022D1E7E17C2846FDF7BDF9D0E74B
S21400996008B53E20FFF75EFC08BD08B50A4641185C
S2140099700139FDF7A1FB08BD430907D0012B0FD025
S214009980022B01D0094A02E0094A00E0002200F05A
S2140099901F0039B102F580520123834013607047DF
S2140099A0044AF4E702F50052F6E700BF6082005072
S2140099B0688000506480005008B501213A20FFF707
S2140099C0DBFF08BD08B501213A20FFF7D5FF08BD2B
S2140099D010B50C4B4FF40012C3F88020BFF34F8F26
S2140099E0BFF36F8F084B00245C65FF229A625C60B1
S2140099F021462020FFF7C0FF21462120FFF7BCFFAD
S214009A0010BD00BF00E100E00000045010B50446A1
S214009A1001212020FFF7B0FF01212120FFF7ACFF36
S214009A20114B01225A60227812069A606178A27859
S214009A3042EA01429A61FF229A6200229A631A64FD
S214009A404FF000425A6503F500534FF0FF321A6597
S214009A50064A4FF40011C2F88011E3781B01DBB20E
S214009A6082F81533116010BD0000045000E100E0DC
S214009A7010B584B0214B03F58D6292E80300029086
S214009A80ADF80C1003F58E6393E8030000908DF894
S214009A90041001213E20FFF76FFF00248DF80840D8
S214009AA08DF80C4002A8FDF7B5F88DF80040694621
S214009AB00120FDF74FF84FF0B0439A6922F47F7209
S214009AC022F003029A6103F5005340F2FF325A6116
S214009AD04FF0B0439B6A13F0080FF9D14FF0B04334
S214009AE000221A620120FDF751F8054B4FF4805210
S214009AF0C3F880211A6004B010BD00BFEC55020008
S214009B0000E100E000B583B000230193B0F5807F4C
S214009B107CD00FD9B0F5D06F7DD039D9B0F5006FB5
S214009B204BD04FD9B0F5086F67D101A90020FFF7D9
S214009B3080FA62E052281ED824285ED324382E28C5
S214009B405BD8DFE800F05E5E5E5E5A5A565A2F68B3
S214009B505A5A5A5A5A5A5A5A5A5A6D5A5A5A5A4562
S214009B60725A5A5A5A5A5A5A5A5A5A5A5A5A5A5A38
S214009B705A5A5A5A5E0080283FD12E4B1B6F03F06C
S214009B800703013B032B38D8DFE803F030272A2DE4
S214009B90B0F5A06F44D00AD9B0F5B06F29D0B0F5B3
S214009BA0C06F2AD101A90020FFF768FA25E0B0F5BA
S214009BB0806F26D0B0F5906F1FD101A90020FFF767
S214009BC0B1F91AE0B0F5E06F2FD0B0F5F06F14D110
S214009BD001A90020FFF7B0FA0FE0052301930CE07F
S214009BE00323019309E00723019306E00223019370
S214009BF003E001A90020FFF7EFF9019803B05DF834
S214009C0004FB01A90020FFF7C1F9F6E701A900202F
S214009C10FFF774FAF1E701A90020FFF7D7FAECE79F
S214009C2001A90020FFF750FAE7E701A90020FFF797
S214009C30A9FAE2E70080005010B504468020FFF73E
S214009C4061FF032800F09E804F4B4FF400225A66B7
S214009C5003F5405345F60E02C3F8802003F5805204
S214009C600221916203F5005301229A62474B9B6DD5
S214009C7013F4803FFAD1226863681B0543EA026347
S214009C80227B43EA0243627B43EA0233A27B43EA37
S214009C908213E27B13433D4A1361936903F000434A
S214009CA0216943EA8163616943EA0163217E43EAED
S214009CB00143617E43EA0123A17E0B439361136A4D
S214009CC023F00D03E269002A43D111460B43E17EDF
S214009CD043EA81031A432D4B1A62E369002B3AD1FB
S214009CE02A4A936A23F0330394F8201043EA411378
S214009CF094F8211043EA011343F001039362234BC7
S214009D009A6D234B9343FAD1204B03F580510222E0
S214009D108A621A651D4B9B6D13F0804FFAD11B4B60
S214009D201A6922F47002A16842EA01521A6103F528
S214009D3080534FF000429A6194F8223013B9154BC5
S214009D4002229A6294F82330ABB9124B01229A622F
S214009D5011E00821BAE70D4A936A23F0330394F81A
S214009D60201043EA411394F8221043EA410394F882
S214009D7023100B43936294F824301BB1034B064A1E
S214009D80C3F8802010BD00BF0090005000C00050F7
S214009D900300014000E00050F1A7FFFFA0B9274BE9
S214009DA00022C3F86424264B4FF400325A6603F5AB
S214009DB098335B68012B00D07047224BD3F8002104
S214009DC01E4BC3F8642470471C4BD3F86434002B36
S214009DD0F2D01D4A5268012AEED010B5194AC2F8D0
S214009DE000318020FFF78EFE052803D0174B012296
S214009DF05A6010BD4FF4C070FCF7F2FB0446012811
S214009E0015D0114B03F500520721116103F580535D
S214009E1001225A600C4B1B6913F0010FFAD0012C7B
S214009E20E7D101214FF4C070FFF7A4FBE1E7022160
S214009E304FF4C070FFF79EFBE3E700BF0814002056
S214009E40009000500080005000C0015000D001502B
S214009E5008B50020FFF7A2FF08BD08B50849D1F8ED
S214009E60203103F00303074AC2F86834D1F82431DE
S214009E7003F00703C2F86C34FFF7EAFF08BD00BF23
S214009E80008000500814002008B50120FFF786FF68
S214009E9008BD08B5FFF7F8FF114B1A6F22F007024E
S214009EA01049D1F8700402431A67D3F8202122F033
S214009EB00302D1F868040243C3F82021D3F8242112
S214009EC022F00702D1F86C040243C3F8242191F86B
S214009ED0A53113B1044B01229A62FEF7C3FF08BDF9
S214009EE0008000500814002000E00050014B83F86A
S214009EF07404704708140020014B93F974047047EB
S214009F000814002010B58AB0EC461B4C0FCCACE809
S214009F100F000FCCACE80F0094E803008CE80300B9
S214009F20164BD3F84C3113F4002F07D0144B1C8873
S214009F304FF6FF739C4205D18D2403E00F4BD3F8F8
S214009F405041E4B28DF81940FFF7D6FF241803D429
S214009F50FF2C02DDFF2400E000248DF8184009489D
S214009F60FEF792FF6846FFF767FE3220FCF772FBAB
S214009F7000200AB010BD00BF645A02000080E00F47
S214009F800001E00F00F04902EFF3108072B6704750
S214009F9008B5FFF7F9FF024BC3F8780408BD00BF09
S214009FA00814002000B962B6704708B5024BD3F813
S214009FB07804FFF7F7FF08BD0814002070B50546C3
S214009FC00E461446FFF7E0FF2B685C4034405C40CA
S214009FD02C60FFF7E7FF70BDF8B5254B9E6AFF289B
S214009FE043D805469B6D13F4803F02D0214B0122D7
S214009FF09A621F4B03F58052022191629B6D13F407
S21400A000803F04D01A4B9B6D13F0020FFAD0194B09
S21400A01002221A65164B9C6D14F08044FAD1FFF7A5
S21400A0206BFF401903D4FF2802DDFF2000E000206C
S21400A0300F4FBB6923F47F0323F47F4343EA0043B7
S21400A0402D02ADB22B43BB61324602210A48FFF710
S21400A050B5FFB86D10F4803000D1F8BD324601214E
S21400A0600548FFF7ABFF2046F7E72120F5E700BFDE
S21400A07000C0005000D0005028C0005070B51A4BE9
S21400A0809E6A9B6D13F4803F02D0184B01229A62A1
S21400A090154B03F58052022191629B6D13F4803FAD
S21400A0A004D0114B9B6D13F0020FFAD00F4B022217
S21400A0B01A650D4B9B6D13F0804FFAD10A4DAC69B3
S21400A0C0C4F30724324602210948FFF777FFAB6D39
S21400A0D013F4803F01D1204670BD3246012104486A
S21400A0E0FFF76CFFF7E700BF00C0005000D000503D
S21400A0F028C0005008B51A4B9A6A03F58053012110
S21400A1009962174B9B6D03F00303032BF9D1154B94
S21400A110022199621965124B9B6D13F0804FFAD19C
S21400A1200F4B996D104B8B43FAD10E4B01211965DD
S21400A1300B4B9B6D13F0020FFAD1094B9B6D13F07E
S21400A140020FFAD0074B02211965054B9B6D13F0E1
S21400A150020FFAD003210548FFF730FF08BD00BF05
S21400A16000C0005000D000500300010028C000507E
S21400A17038B504461D4BD3F8843013F0100FF9D1D0
S21400A1801A4BD3F88430C3F381139C4228D0FEF7D1
S21400A1904FFE0546012C0DD0FFF7F6FE134A02F5DA
S21400A1A000534FF000715966611E4FF480638B4078
S21400A1B0136706E00121FCF793FAEDE70B4BD3F8A3
S21400A1C084300A4B5B6E13F0007F05D1074BD3F843
S21400A1D0843013F0200FF1D0FFF7E4FE022C00D0FD
S21400A1E038BD00212846FCF77BFAF9E7004000500E
S21400A1F008B501210220FFF7BBFFFCF77CFAFFF74A
S21400A20013FAFCF72DFA08BD10B50C46034658B1F4
S21400A2100A4A92F87C2412B1094A934208D9214688
S21400A2200220FFF7A5FF10BDFEF702FE0346EFE78C
S21400A23021460120FFF79CFFF5E700BF0814002029
S21400A240005A620208B5FEF70DFE0C4BD3F88430B8
S21400A25013F0100FF9D1094BD3F88410C1F3811114
S21400A260C1F10201FCF73CFA01210020FFF7CCFF08
S21400A270FFF76EF9FFF75CF908BD00BF004000501D
S21400A28008B5FCF7DBF9FFF7B3FF224A136F23F09C
S21400A290070343F003031367FFF7D4FF1E4B9B6AC5
S21400A2A013F0020F02D11D4B01229A62194BD3F80C
S21400A2B0202122F0030242F00202C3F82021D3F844
S21400A2C0242122F0070242F00202C3F82421D3F828
S21400A2D0402122F0030242F00102C3F84021D3F8E5
S21400A2E0602122F0030242F00102C3F86021D3F895
S21400A2F0402222F0030242F00102C3F84022D3F8C3
S21400A300002222F0070242F00102C3F800220020D9
S21400A31008BD00BF0080005000C0005000E00050A4
S21400A32070B50C46B0F5807F00F0258121D9B0F5D8
S21400A330D06F00F0A38161D9B0F5006F00F0858082
S21400A34040F28F80B0F5086F40F0FC80072900F0DF
S21400A350B281082900F0B181032900F0AA8100210A
S21400A3609E4AD2F8003123F003030B43C2F80031B3
S21400A370E8E0522837D82428C0F0E48024382E2875
S21400A38000F2E080DFE810F0E100E100E100E1002B
S21400A390DE00DE00D100DE0047007A01DE00DE00CF
S21400A3A0DE00DE00DE00DE00DE00DE00DE00DE00B8
S21400A3B09B01DE00DE00DE00DE007400AD01DE0084
S21400A3C0DE00DE00DE00DE00DE00DE00DE00DE0098
S21400A3D0DE00DE00DE00DE00DE00DE00DE00DE0088
S21400A3E0DE00DE00E100802840F0AC808B1E052BEE
S21400A3F051D8DFE803F0948250975091B0F5A06FE3
S21400A40000F05D811AD9B0F5B06F00F08E80B0F51F
S21400A410C06F40F097800A2C00F20681092C80F06D
S21400A4200781082C40F0068102226C49D1F84031A1
S21400A43023F003031343C1F8403183E0B0F5806F87
S21400A44000F08380B0F5906F7CD1023C052C00F2C2
S21400A450FF80DFE814F00101FF0007010901050194
S21400A4600301B0F5E06F00F03C81B0F5F06F69D104
S21400A4700A2C00F2E380092C80F0E480082C40F0DF
S21400A480E38002225549D1F8603123F003031343D9
S21400A490C1F8603156E000252E4601210220FFF764
S21400A4A067FEFCF728F9FFF7BFF8FCF7D9F84B4A28
S21400A4B0136F23F0070333431367FEF7D3FC484BB1
S21400A4C0D3F8843013F0100FF9D1454BD3F884102D
S21400A4D0C1F38111C1F10201FCF702F9012100204C
S21400A4E0FFF792FEFFF734F8FFF722F855BB032C70
S21400A4F028D13C4B01229A6224E03B4B4FF40022C9
S21400A5005A6603F540539D6AC5F3400503F580532C
S21400A51001229A620E46C0E700250426BDE7002504
S21400A5200126BAE700250226B7E7022C02D00F2C38
S21400A53009D10124294AD2F8803123F003032343AA
S21400A540C2F8803170BD0024F4E7032C0FD0052C30
S21400A5500FD0022C09D00021204AD2F8203123F057
S21400A56003030B43C2F82031ECE70321F4E7022192
S21400A570F2E70121F0E7A1F10804082CE2D801A3D4
S21400A58053F824F0A9A50000A9A5000045A50000E1
S21400A590A9A50000F5A5000045A5000045A50000FA
S21400A5A045A50000A9A500000C4B596E03F5805385
S21400A5B04FF480325A660D4A136A43F00103136261
S21400A5C011F4803F03D10A4B4FF480325A664FF0A5
S21400A5D0E022136923F004031361B3E70080005000
S21400A5E00040005000E000500090005000C00750AF
S21400A5F000A00050484B596E03F580534FF480324C
S21400A6005A66464A136A23F00103136211F4803F28
S21400A61003D1434B4FF480325A664FF0E022136961
S21400A62043F0040313618DE70B2C05D10322FCE6EF
S21400A6300122FAE60022F8E60022F6E60B2C05D107
S21400A64003221FE701221DE700221BE7002219E76D
S21400A65000210AE0022108E0032106E0042104E0CC
S21400A660052102E0062100E001212B4AD2F8243120
S21400A67023F007030B43C2F8243163E7083C062C9B
S21400A68005D8DFE804F0060C0C0804040A000021D4
S21400A69006E0022104E0032102E0042100E001219B
S21400A6A01D4AD2F8003223F007030B43C2F80032EB
S21400A6B048E7012154E6032152E6022150E60F2C1A
S21400A6C00BD0102C0BD10221134AD2F8203223F0E3
S21400A6D003030B43C2F8203234E70121F4E70021DC
S21400A6E0F2E70A2C0DD8092C0FD2082C0FD1022223
S21400A6F00949D1F8403223F003031343C1F840322E
S21400A70020E70B2C05D10322F2E70122F0E7002216
S21400A710EEE70022ECE700BF0080005000C00750C4
S21400A72000A0005008B50278034B83F87C24012172
S21400A7300020FFF769FD08BD0814002010B582B0A0
S21400A74000248DF8044001A8FFF7ECFF2046FCF734
S21400A75096FD504B1A6F02F007024F49C1F870245D
S21400A760D3F8000100F00300C1F8800403F580531D
S21400A7704FF4002058664FF40030586603F59833BF
S21400A7809B69C3F3400381F88434032A1FD0414BEE
S21400A790D3F8203103F00303022B16D000233E4CDF
S21400A7A084F8A5313B4AD2F8242102F00702022A97
S21400A7B008BF43F0010384F8A5314FF4C870FCF7D6
S21400A7C0FFFCC4F8A80100230FE00123E7E70123FC
S21400A7D0E5E7314A02EB8301C1F88804D2F8B014E9
S21400A7E00144C2F8B0140133DBB2092BF1D92A4B6D
S21400A7F093F884347BB1284A92F8A5215AB92549A2
S21400A800D1F8001101F00301012908BF42F001024E
S21400A810214981F8A52153B11E4BD3F8003103F02E
S21400A8200303022B2ED0032B30D0012B0AD01F207F
S21400A830FCF7C6FC184AD2F8A0310344C2F8A0318F
S21400A84002B010BDFEF769FB0246002AEFD0134B9C
S21400A850DB68C3F30B03013303EB83031049A3FB4D
S21400A8600131501E18184FF0000341F1000119F095
S21400A87023F8FCF7A5FC084AD2F8A0310344C2F836
S21400A880A031D4E7FEF7D2FB0246DEE7FBF7B6FDC3
S21400A8900246DAE7008000500814002000C001508D
S21400A8A040420F0070B505460E461446FFF76CFB97
S21400A8B02B685C4034405C402C60FFF773FB70BD37
S21400A8C070B505460E461446FFF75EFB2B685C40E7
S21400A8D034405C402C60FFF765FB70BD02B97047E2
S21400A8E0F8B504460E46174603F00305836823F4BE
S21400A8F0407340F8083F2A024FF44071FFF7E0FF2C
S21400A9002EB9134B9C4219D0124B9C421BD0A36805
S21400A910114B2B4493F8A02407FB02F26AB1A6EB76
S21400A920C7031344013BB3FBF2F3013BA26812F0EA
S21400A930020F01D003B90123A361F8BD2E20FEF754
S21400A94071FC0646E3E72F20FEF76CFC0646DEE7C2
S21400A9500000015A00800650EC55020010B5FFF7C3
S21400A96013FB034BD3F8B444FFF71CFB204610BD83
S21400A9700814002070B50C461546034630B15E68D4
S21400A9804EB12A4621461868B04770BDFFF7E6FF6D
S21400A99003460028F3D12320F7E72DE9F04182B0E3
S21400A9A00E4617461C46054670B18CB195B1D5F8D3
S21400A9B00880B8F1000F0FD023463A463146286883
S21400A9C0C04702B0BDE8F081FFF7C8FF0546ECE7D8
S21400A9D001ACEBE72320F4E72320F2E710B50446AA
S21400A9E0FFF7D2FA236C1A6C12F0800F0BD003F527
S21400A9F0805304225A64236C03F5805304229A641D
S21400AA00FFF7D0FA10BD03F5005304225A64F2E7AC
S21400AA1038B5FFF7B9FA0546094B93F8B834012B59
S21400AA200AD9FCF7C6FB0446FCF76AFC0444284631
S21400AA30FFF7B8FA204638BDFFF7B4FA0024F9E766
S21400AA400814002070B50446FFF79EFA0646FCF789
S21400AA50ADFC0546FCF7D2FC4FF0B0435B6913F043
S21400AA60400F04D1431B032B01D885420DD1631B35
S21400AA70022B00D8EC1CB4F1FF3F38BF013C4FF06E
S21400AA80B0431C640220FCF7BDFC3046FFF78AFA90
S21400AA90064B5B7943B14FF0B042D36B43F00203F1
S21400AAA0D363024B00225A7170BD00BF0408002019
S21400AAB010B50C4BD3F8AC315B6963B1094AD2F8D8
S21400AAC0B4411C440220FCF79DFC2046FFF7BAFF69
S21400AAD0FCF752FC10BD0220FCF794FC0220FCF7A9
S21400AAE0BFFCF5E708140020EFF31180302383F352
S21400AAF0118870475A4B93F8DC31002B7BD130B568
S21400AB0083B00446002301930093002871D0544D6F
S21400AB10012385F8DC31FFF7E7FFC5F8BC0415F024
S21400AB2057FE95F8C034002B6AD04E4A536E6361C8
S21400AB30936EA36102F580524FF40043936603F1CF
S21400AB4088435968E16148499960196E2160596ED9
S21400AB506160D3F87011A160196CE160596C2161D5
S21400AB604249086C1864496C5964012151664FF4D7
S21400AB70005191661B6E13F4804F53D03C4BDB683C
S21400AB8013F0010FFAD13B4B5B6E13F4804F4FD09E
S21400AB90394BDB6B13F0430FFAD1FBF73EFB374B19
S21400ABA004221A664FF480621A66FBF789FBB0F13E
S21400ABB0FF3F43D1314C102323664FF400532366E6
S21400ABC04FF0804323664FF480436366694601A8CE
S21400ABD0FBF704FB019B2366009B6366204B93F800
S21400ABE0C03433B11E4AD2F8C4142166D2F8C82441
S21400ABF0626603B030BD1A4B022283F8DC21704730
S21400AC00FDF70CFB002890D1082305F2C4421C492E
S21400AC1005F5F07012F07EFC002886D1012285F83A
S21400AC20C02482E7174BDB6813F0010FFAD1AAE7BE
S21400AC30154BDB6B13F0430FFAD1AEE7FBF740FB87
S21400AC4040F201139842B5D00C4B4FF480421A667E
S21400AC504FF400421A661022C3F87021AAE700BF1C
S21400AC60081400200080005055CEAC0000C00054F0
S21400AC7000000440008000440000024C00900044A5
S21400AC8000710800000004500000025C80F3118888
S21400AC907047284B93F8DC31012B04D0254B01225A
S21400ACA083F8DC21704710B50446002831D0FBF746
S21400ACB007FBB0F1FF3F2DD11F4B4FF400529A66B1
S21400ACC01E4BDB6B13F0430FFAD122681C4B1A663F
S21400ACD062685A66A268C3F87021E2681A6422693C
S21400ACE05A64E36913F0010F02D0154B00229A60F4
S21400ACF0FBF7C4FA6269134B5A66A2699A6615F0A6
S21400AD006FFD0C4CD4F8BC04FFF7C0FF002384F89A
S21400AD10DC3110BDFBF7D4FA40F201139842CBD0D9
S21400AD20054B01225A66084BDB6813F0010FFAD177
S21400AD30C2E700BF08140020009000400000024C4C
S21400AD4000800044008000500000044038B5002316
S21400AD509B6AB3F5C04F2AD21A68184B9A422AD17A
S21400AD60174B1B781BB1022B01D0002421E0154D98
S21400AD702846FFF7BFFE14490820C1F88001134B90
S21400AD8003F500544FF48032E260086003F5805308
S21400AD901A6100239B6ADB69984704462846FFF73A
S21400ADA078FF34B9A5F2CC4301221A7001E04FF4C3
S21400ADB08174204638BD4FF48174FAE707B0CD5E43
S21400ADC008140020D418002000E100E000800044B1
S21400ADD010B500239B6AB3F5C04F28D21A68174BEC
S21400ADE09A4228D1164B1B78012B01D0002420E074
S21400ADF01448FFF77FFE144B4FF48032DA601A6176
S21400AE00124B0822C3F88021C3F88020BFF34F8F6F
S21400AE10BFF36F8F00239B6A1B6A9847044610B9DE
S21400AE20074B02221A700748FFF733FF01E04FF482
S21400AE308174204610BD4FF48174FAE707B0CD5EEA
S21400AE4008140020D418002000A0004400E100E010
S21400AE5038B500239B6AB3F5C04F11D204461B6B6E
S21400AE60B3F5C04F0CD2074D2846FFF743FE00232C
S21400AE709B6A1B6B5B68204698472846FFF709FFCE
S21400AE8038BD00BFF41800202DE9F8430446002022
S21400AE90806AB0F5C04F1AD20F4616461D46036BA1
S21400AEA0B3F5C04F18D2DFF838804046FFF722FED1
S21400AEB000239B6A1B6BD3F810902B46324639460C
S21400AEC02046C84704464046FFF7E3FE01E04FF43D
S21400AED081742046BDE8F8834FF48174F9E700BF1B
S21400AEE0F418002038B500239B6AB3F5C04F13D280
S21400AEF004461B6BB3F5C04F12D20B4D2846FFF726
S21400AF00F9FD00239B6A1B6B5B6920469847044645
S21400AF102846FFF7BEFE01E04FF48174204638BD98
S21400AF204FF48174FAE700BFF4180020F8B5002348
S21400AF309B6AB3F5C04F15D206460D4614461B6BEA
S21400AF40A3B10C4F3846FFF7D5FD00239B6A1B6B59
S21400AF505B6A224629463046984704463846FFF73D
S21400AF6098FE01E04FF401742046F8BD4FF40174DA
S21400AF70FAE700BFF418002070B500239B6AB3F50B
S21400AF80C04F15D205460C461B6BB3F5C04F13D207
S21400AF900B4E3046FFF7AEFD00239B6A1B6B9B6A89
S21400AFA021462846984704463046FFF772FE01E0E1
S21400AFB04FF40174204670BD4FF40174FAE700BFE9
S21400AFC0F418002030B5ADF50F7D00239B6AB3F56D
S21400AFD0C04F15D20C464FF40E726946FFF7A6FF17
S21400AFE0054678B921466846FFF7C6FF40F20123BA
S21400AFF09842F7D040F20323984203D0054601E07A
S21400B0004FF4017528460DF50F7D30BDF8B50023C9
S21400B0109B6AB3F5C04F17D206460D4614461B6B07
S21400B020B3F5C04F14D20C4F3846FFF763FD00232C
S21400B0309B6A1B6B5B6B2246294630469847044644
S21400B0403846FFF726FE01E040F201142046F8BD20
S21400B05040F20114FAE700BFF4180020F8B5002308
S21400B0609B6AB3F5C04F17D206460D4614461B6BB7
S21400B070B3F5C04F14D20C4F3846FFF73BFD002304
S21400B0809B6A1B6B9B6B22462946304698470446B4
S21400B0903846FFF7FEFD01E040F201142046F8BDF9
S21400B0A040F20114FAE700BFF418002070B5002340
S21400B0B09B6AB3F5C04F15D205460C461B6BB3F51D
S21400B0C0C04F13D20B4E3046FFF714FD00239B6A89
S21400B0D01B6BDB6B21462846984704463046FFF735
S21400B0E0D8FD01E040F20114204670BD40F2011484
S21400B0F0FAE700BFF4180020124B5B78F3B110B5E6
S21400B1000446E8B1FFF7F0FC0023072B12D80D4ADF
S21400B11002EB0312127C0AB10133F6E72360094AF8
S21400B12002EB031301221A7400245C60FFF7AEFDE5
S21400B130204602E0FFF7AAFD034810BD034870470B
S21400B1400348FAE708140020048000F0028000F0AC
S21400B150018000F038B5FFF7C7FC04460023072B34
S21400B16006DC0C4A02EB0312127C12B90133F6E736
S21400B170002222B12046FFF789FD074838BDFEF7BA
S21400B18027FC0025034B5D702046FFF77FFD284611
S21400B190F4E700BF08140020058000F00F4B5B7832
S21400B1A0BBB110B50446072815D8FFF79DFC0B4B1E
S21400B1B003EB04131B7C1BB9FFF768FD08480BE084
S21400B1C0064B03EB041300241C74FFF75FFD2046B8
S21400B1D002E004487047044810BD00BF0814002071
S21400B1E0068000F0028000F0018000F000B583B019
S21400B1F0144BD3F8A434019300238DF80430FFF7E2
S21400B20073FC114B5B7833B90F4B01225A70FFF772
S21400B2103DFD002309E0FFF739FD0C480EE00A4A21
S21400B22002EB0312002111740133072BF7DD08230C
S21400B2308DF8073001A8FEF7E9FB002003B05DF8A3
S21400B24004FB00BFEC55020008140020038000F049
S21400B250F8B505460F461646FFF746FC05F0FC0C0B
S21400B260114BD3F824140023032B0BD85C1904F0DD
S21400B2700304644421FA04F212F0010F03D00133F0
S21400B280DBB2F1E7FF24FF2C09D0084B03EB0413D5
S21400B290C3F83472C3F83862012283F83C22FFF701
S21400B2A0F5FC2046F8BD00BF00C00350081400207F
S21400B2B0B0B110B50446A9B1B2B1B2F5006F15DC55
S21400B2C0FFF712FC94F84C3033B9012384F84C3065
S21400B2D0FFF7DCFC002010BDFFF7D8FC0448FAE7B7
S21400B2E0044870470448F6E70348F4E70248F2E7E4
S21400B2F0032000F0012000F0022000F010B5C0B2DC
S21400B30001248440FFF7F0FB044B5A6D22EA040246
S21400B3105A659C62FFF7BAFC10BD00BF00000450DF
S21400B32008B50A4B5B7853B107280AD8074B03EBDE
S21400B33000131B7C3BB1FFF7E1FF002008BD04486B
S21400B340FCE70448FAE70448F8E700BF08140020C2
S21400B350028000F0018000F0078000F038B5FFF7AB
S21400B360C3FB0546154B93F80C35EBB9134CC4F8E4
S21400B370AC31C4F8B431A4F80E35FEF779FB0120E1
S21400B380FCF740F8FEF7ECFA0246C4F8100580B168
S21400B39000230B4840F2E73118F08EFA074BC3F84B
S21400B3A01405012283F80C252846FFF76FFC0020C1
S21400B3B038BD2846FFF76AFC2320F9E7081400206A
S21400B3C018FCFFFFC0B138B50C460546B1B10023E6
S21400B3D00B70FFF789FB0A4BD3F8AC3101E0012272
S21400B3E022702BB122781AB9AB42F8D09B68F8E7E6
S21400B3F0FFF74CFC002038BD222070472220FAE7D9
S21400B40008140020F8B504460F46FFF76DFB064605
S21400B410144BD3F8AC31002508E0FBF7C7FF114BFF
S21400B420D3F8B4311B1A2B4411E09B68ABB15A69B0
S21400B4301544DA88A24201D0FF2CF6D1FBF7B6FFFE
S21400B440084BD3F8B431C01AA842E6D300233B60B9
S21400B4503046FFF71BFC0020F8BD3046FFF716FC11
S21400B4601B20F9E70814002010B5FFF73DFB034B3F
S21400B47093F81845FFF70AFC204610BD0814002074
S21400B48010B5FEF781FD064B93F81945002283F8A8
S21400B4901925FEF787FDFFF7E7FF2043C0B210BD72
S21400B4A00814002038B5FFF7EBFF0446FCF720F839
S21400B4B004280BD002280BD000250CF06BFC0428C7
S21400B4C00BD0022807D04DB1002407E00125F4E791
S21400B4D000250124F1E70124F5E70024204638BDC5
S21400B4E0034AD36E23F0300301790B43D3667047CB
S21400B4F00040005010B582B0074A536F43F0010376
S21400B5005367002400948DF804406846FFF7E8FF70
S21400B510204602B010BD00BF0040005070B5174B6B
S21400B520DC6E24F0030444F00204DD6E45F00305EF
S21400B5304AF6E8521A66FEF727FD0646FEF758FE5C
S21400B5400F4A136F23F0070343F001031367FEF758
S21400B55079FE0020FDF797F8002303E0074AD4663B
S21400B560D5660133032BF9DD044BDC6603F51023A7
S21400B5705B6A3046FEF716FD70BD00BF0040005007
S21400B58000800050084BD3F88830C3F30A0307EE58
S21400B590903AF8EE677AB5EE007A67EE877A9FED16
S21400B5A0030A37EEC00A70470040005033938843C2
S21400B5B02DE9F8430D4614461E469DF820809DF85A
S21400B5C02470072A29D8930000FA03F20321994031
S21400B5D02148FFF767F94FF00009072C29D8A1008A
S21400B5E005F003028A40032303FA01F11B48FFF724
S21400B5F059F95EB31A4A0123A3401360B8F1000F4D
S21400B60026D0184A13600122A2401749C1F8202408
S21400B61007B3164A1360BDE8F883A2F108094FEA9B
S21400B620890300FA03F2032199401148FFF73AF91B
S21400B630D3E74FEA890905F0030202FA09F203216B
S21400B64001FA09F10B48FFF72DF9D2E70A4AD2E7CB
S21400B6500A4AD7E70A4ADDE700C4035008C4035085
S21400B66010D4035014D4035000E0035024D40350E5
S21400B67004C403500CC4035010E4035014E40350F5
S21400B68024E40350F8B504460D461E46174662B13C
S21400B6904BB301228A4000EB40031B0103F1A04399
S21400B6A003F5703341F210015A50072D28D8A9002F
S21400B6B004EB44031B0107FA01F20F2000FA01F124
S21400B6C01E481844FFF7EEF867B94EB30123AB40A7
S21400B6D004EB4404240104F1A04404F5703441F260
S21400B6E01002A350F8BD01228A4000EB40031B0164
S21400B6F003F1A04303F5703342F210015A50D4E729
S21400B700A5F108039B0004EB440C4FEA0C1C07FA57
S21400B71003F20F2199400A486044FFF7C3F8D3E7C5
S21400B7200123AB4004EB4404240104F1A04404F5D7
S21400B730703442F21002A350D4E700BF04C0035096
S21400B7400CC0035008B50123042207210220FFF78E
S21400B75099FF002008BD2DE9F04389B004468846CD
S21400B760174601AD284E0FCE0FC596E8070085E8B0
S21400B7700700D4F80090254B994543D003F5804345
S21400B78099453DD04FF0FF356D0105F1A04505F513
S21400B7907035D5F81C6606F0040601213A20FEF73F
S21400B7A0EBF801216068FEF7E7F800230422617BCE
S21400B7B0207BFFF767FF00230422617A207AFFF7D9
S21400B7C061FFCDF80C80ADF8147001238DF81230AF
S21400B7D001A94846FEF776F8237A627A43EA0243DE
S21400B7E0C5F83436237B627B43EA0243C5F830361D
S21400B7F046F01806C5F81C66002009B0BDE8F083C0
S21400B8000125C1E70025BFE7945A020000C0055095
S21400B81008B5002281680248FFF79DFF002008BD9A
S21400B8203C08002008B501213A20FEF7A5F80123C0
S21400B830042203210020FFF725FF224B0122C3F834
S21400B84044244FF46070FDF7EDFC1F4BD3F8F02056
S21400B85042F00102C3F8F020D3F8FC2042F08072D8
S21400B860C3F8FC20A3F55D43184A1A6000F5D520FE
S21400B87000F2FC40C008164BA3FB0030800A0138DB
S21400B880144B18610222C3F8F0204FF48072C3F8FC
S21400B89004234FF06043104AC3F8B02F0F4AC3F892
S21400B8A0802ED3F8002E42F48072C3F8002EFF22BA
S21400B8B083F82020D3F8002E22F48072C3F8002EDE
